:020000040000FA
:10000000831603132F308500860110308700880186
:1000100089010914D53081008312D4309F008316E2
:100020009F01831603172030880089010313831270
:100030000C309700403095008316FF3092008312F9
:100040000330920030309400831600309400850114
:100050001F149F149F182A281F101E08A100831622
:100060001E088312A2002108930022088316141C84
:1000700037281410831293008316141C3D28141083
:100080008312050893000D30A3000B1D45280B11AA
:06009000A30B45282828FF
:0400960000340034FE
:02400E00E428A4
:02401000FF3E71
:00000001FF
