:020000040000FA
:10000000831603132F308500860110308700880186
:10001000890109148312D4309F0083169F0183162F
:100020000317203088008901031383120C309700D6
:10003000403095008316FF30920083120330920007
:10004000343094008316003094008501A7011F14FA
:100050009F149F1829281F101E08A10083161E0830
:100060008312A200141C322814109308A400141C3C
:10007000372814109308A500141C3C28141093086A
:10008000A6002408950025080310A50CA50C0C302B
:0A00900025049700260886002728A3
:04009A0000340034FA
:02400E00E428A4
:02401000FF3E71
:00000001FF
